:100000000C9462000C94AF050C9488050C948A0043
:100010000C948A000C948A000C948A000C948A0038
:100020000C948A000C948A000C948A000C948A0028
:100030000C948A000C948A000C948A000C948A0018
:100040000C943E050C948A000C94FC050C94D60587
:100050000C948A000C948A000C948A000C948A00F8
:100060000C948A000C948A000000000023002600F3
:10007000290000000000240027002A0000000000E2
:10008000250028002B0004040404040404040202D4
:100090000202020203030303030301020408102007
:1000A0004080010204081020010204081020000012
:1000B0000008000201000003040700000000000027
:1000C00000002E0611241FBECFEFD8E0DEBFCDBF4B
:1000D00011E0A0E0B1E0E6E6F7E102C005900D9284
:1000E000A838B107D9F722E0A8E8B1E001C01D9215
:1000F000A934B207E1F710E0C2E6D0E004C02197CE
:10010000FE010E94A60BC136D107C9F70E947806EE
:100110000C94B10B0C940000833081F028F48130F2
:1001200099F08230A1F008958730A9F08830B9F0B5
:100130008430D1F4809180008F7D03C08091800055
:100140008F7780938000089584B58F7702C084B53F
:100150008F7D84BD08958091B0008F7703C080911A
:10016000B0008F7D8093B00008951F93CF93DF93ED
:10017000282F30E0F901E255FF4F8491F901E6564E
:10018000FF4FD491F901EA57FF4FC491CC23C1F03E
:10019000162F81110E948C00EC2FF0E0EE0FFF1F54
:1001A000E458FF4FA591B4919FB7F894111104C082
:1001B0008C91D095D82302C0EC91DE2BDC939FBFAD
:1001C000DF91CF911F910895CF93DF9390E0FC01D1
:1001D000E656FF4F2491FC01EA57FF4F8491882394
:1001E00061F190E0880F991FFC01EE58FF4FC59117
:1001F000D491FC01E458FF4FA591B491611109C05D
:100200009FB7F8948881209582238883EC912E23D0
:100210000BC0623061F49FB7F8948881322F30951B
:1002200083238883EC912E2B2C939FBF06C08FB71E
:10023000F894E8812E2B28838FBFDF91CF9108950A
:100240003FB7F8948091900190919101A091920113
:10025000B091930126B5A89B05C02F3F19F00196D8
:10026000A11DB11D3FBFBA2FA92F982F8827820F3C
:10027000911DA11DB11DBC01CD0142E0660F771F8C
:10028000881F991F4A95D1F708958F929F92AF9238
:10029000BF92CF92DF92EF92FF926B017C010E949E
:1002A00020014B015C01C114D104E104F104F1F01F
:1002B0000E942001DC01CB0188199909AA09BB0918
:1002C000883E9340A105B10570F321E0C21AD10820
:1002D000E108F10888EE880E83E0981EA11CB11C8D
:1002E000C114D104E104F10419F7DDCFFF90EF90C0
:1002F000DF90CF90BF90AF909F908F90089508951A
:10030000CF92DF92EF92FF920F931F93CF93DF93E1
:100310006C017A018B01C0E0D0E0CE15DF0581F0E1
:10032000D8016D918D01D601ED91FC910190F08184
:10033000E02DC6010995892B11F02196EECF7E01A3
:10034000C701DF91CF911F910F91FF90EF90DF9048
:10035000CF900895FC01538D448D252F30E0842FDC
:1003600090E0821B930B541710F0CF9608950197DD
:100370000895FC01918D828D981761F0828DDF01C7
:10038000A80FB11D5D968C91928D9F5F9F73928F88
:1003900090E008958FEF9FEF0895FC01918D828D7D
:1003A000981731F0828DE80FF11D858D90E008954A
:1003B0008FEF9FEF0895FC01918D228D892F90E0A2
:1003C000805C9F4F821B91098F739927089584E960
:1003D00091E00E94DB0121E0892B09F420E0822FCB
:1003E0000895FC01848DDF01A80FB11DA35ABF4FF2
:1003F0002C91848D90E001968F739927848FA68924
:10040000B7892C93A089B1898C91837080648C9377
:10041000938D848D981306C00288F389E02D808126
:100420008F7D80830895EF92FF920F931F93CF9358
:10043000DF93EC0181E0888F9B8D8C8D981305C034
:10044000E889F989808185FD26C0F62E0B8D10E0A4
:100450000F5F1F4F0F731127E02E8C8DE8120CC019
:100460000FB607FCFACFE889F989808185FFF5CFBF
:10047000CE010E94F101F1CF8B8DFE01E80FF11D3D
:10048000E35AFF4FF0829FB7F8940B8FEA89FB89FC
:10049000808180620AC09FB7F894EE89FF896083EB
:1004A000E889F98980818370806480839FBF81E0BF
:1004B00090E0DF91CF911F910F91FF90EF90089501
:1004C000CF93DF93EC01888D8823C9F0EA89FB89FB
:1004D000808185FD05C0A889B9898C9186FD0FC0F2
:1004E0000FB607FCF5CF808185FFF2CFA889B989C7
:1004F0008C9185FFEDCFCE010E94F101E7CFDF9116
:10050000CF91089580E090E0892B29F00E94E701C7
:1005100081110C9400000895CF93DF93EC0160E00B
:100520008E810E94B50061E08E810E94B50060E07E
:100530008E810E94B5008BE891E00197F1F7DF9181
:10054000CF910895CF92DF92EF92FF920F931F9376
:10055000CF93DF936C017C0187E0E80EF11CC0E0D3
:10056000D0E0062F10E0B8010C2E02C075956795FB
:100570000A94E2F76170F70181917F010E94B50052
:100580002196C430D10579F7C601DF91CF911F9133
:100590000F91FF90EF90DF90CF900C948C02CF9250
:1005A000DF92EF92FF920F931F93CF93DF93EC01B3
:1005B000F62E642F8C810E94B5008D818F3F19F03B
:1005C00060E00E94B5008F850F2D10E084FF25C0EC
:1005D0006E0187E0C80ED11CE12CF12CB8010E2C65
:1005E00002C0759567950A94E2F76170F6018191F2
:1005F0006F010E94B500FFEFEF1AFF0A88E0E816CE
:10060000F10461F7CE01DF91CF911F910F91FF901F
:10061000EF90DF90CF900C948C02B80184E0759538
:1006200067958A95E1F7CE010E94A2026F2DCE0157
:10063000DF91CF911F910F91FF90EF90DF90CF90BE
:100640000C94A20240E0682F81E392E00C94CF0268
:1006500081E00E9422038BE39FE10197F1F7089567
:10066000CF93DF93823028F090914002986090936E
:100670004002809344021092450280E48093460237
:1006800080E18093470280E58093480261E0809199
:1006900035020E94E400809136028F3F19F061E03C
:1006A0000E94E40061E0809137020E94E400C1E30F
:1006B000D2E09E01215332408091400284FD03C06C
:1006C00084E090E002C088E090E021962817390786
:1006D0002CF461E08E810E94E400EBCF8BE39DE07F
:1006E0000197F1F760E0809135020E94B50060E06B
:1006F000809137020E94B500809136028F3F19F039
:1007000060E00E94B5008091400284FD20C063E05B
:1007100081E392E00E94A202CBE4D6E4CE010197ED
:10072000F1F763E081E392E00E94A2022197F1F7E2
:1007300063E081E392E00E94A20283E592E00197E8
:10074000F1F762E081E392E00E94A20215C08062AC
:100750000E9422038BE496E40197F1F78091400216
:1007600080620E94220383E592E00197F1F7809175
:10077000400280620E9422038091400280620E94B7
:10078000220384E0809341028CE00E9422030E94B5
:10079000280382E08093420286E0DF91CF910C949F
:1007A0002203643008F063E090914402691710F06E
:1007B0006FEF690FE62FF0E0EF5CFD4F9489890F32
:1007C00080680C94220341E00E94CF0281E090E017
:1007D0000895089580E090E00895CF93DF93E0EBD3
:1007E000F0E08491ECE9F0E0D491E8E8F0E0C49125
:1007F000CC2379F081110E948C00EC2FF0E0EE0FF9
:10080000FF1FE859FF4FA591B491EC91ED2381E0D2
:1008100009F480E080938A0180918A01811102C0ED
:1008200010928A0180918A01813011F480938A01AB
:10083000DF91CF910895009769F0FC0101900020AD
:10084000E9F73197AF01481B590BBC0181E392E0F6
:100850000C94800180E090E008950C941B042F928A
:100860003F924F925F926F927F928F929F92AF9240
:10087000BF92CF92DF92EF92FF920F931F93CF938D
:10088000DF93CDB7DEB7A4970FB6F894DEBF0FBEE7
:10089000CDBF6B017C019B01AC010E947F0B8823C3
:1008A00019F08CE291E01AC046015701E894B7F8BC
:1008B0002FEF3FEF4FE75FE7C501B4010E947F0BC9
:1008C00081110FC02FEF3FEF4FE75FE7C501B40184
:1008D0000E94AE0918162CF480E391E00E941B04DC
:1008E000B2C02FEF3FEF4FE75FE4C701B6010E94B0
:1008F0000D0B18161CF484E391E0F0CF2FEF3FEFBF
:100900004FE75FECC701B6010E94AE0987FDF3CF48
:1009100020E030E0A901C701B6010E94AE0987FFBF
:100920000DC041E06DE281E392E00E94CF02F7FA50
:10093000F094F7F8F09401E010E002C000E010E05D
:100940002AE037ED43EA5BE3C701B6010E944209A2
:100950006B017C010E942C0A2B013C010E945B0A66
:100960009B01AC01C701B6010E9441094B015C012A
:1009700019A27E0181E2E80EF11CEAA2FBA2C301EA
:10098000B2012AE030E040E050E00E94840B2901EF
:100990003A01605DF70162937F01232B242B252B05
:1009A00071F7CF010E941B047C010F5F1F4F41E0D4
:1009B0006EE281E392E00E94CF020E0D1F1D83E0E4
:1009C000F82E9AE0292E312C412C512CFA94FF203C
:1009D000C9F120E030E040E251E4C501B4010E94D9
:1009E000120B4B015C010E942C0A9B0140E050E07D
:1009F00019A26AA07BA06CA3C32ED42EE52ECA0137
:100A0000B901A20191010E94840B605DF301629320
:100A10003F01211531054105510589F7CF010E949C
:100A20001B04080F191F6CA17C2D8D2D9E2D0E947B
:100A30005B0A9B01AC01C501B4010E9441094B0155
:100A40005C01C4CFC801A4960FB6F894DEBF0FBEF8
:100A5000CDBFDF91CF911F910F91FF90EF90DF906D
:100A6000CF90BF90AF909F908F907F906F905F904E
:100A70004F903F902F9008950E94AC0B1F920F92C1
:100A80000FB60F9211242F933F938F939F93AF93A1
:100A9000BF9380918C0190918D01A0918E01B091B6
:100AA0008F0130918B0123E0230F2D3720F4019625
:100AB000A11DB11D05C026E8230F0296A11DB11D81
:100AC00020938B0180938C0190938D01A0938E01D4
:100AD000B0938F018091900190919101A09192012A
:100AE000B09193010196A11DB11D80939001909347
:100AF0009101A0939201B0939301BF91AF919F9107
:100B00008F913F912F910F900FBE0F901F901895CE
:100B10001F920F920FB60F9211242F933F934F9372
:100B20005F936F937F938F939F93AF93BF93EF9355
:100B3000FF93E0910201F09103010995FF91EF917C
:100B4000BF91AF919F918F917F916F915F914F91E5
:100B50003F912F910F900FBE0F901F9018951F92ED
:100B60000F920FB60F9211242F933F934F935F93E1
:100B70006F937F938F939F93AF93BF93EF93FF9365
:100B8000E0910001F09101010995FF91EF91BF9172
:100B9000AF919F918F917F916F915F914F913F9115
:100BA0002F910F900FBE0F901F9018951F920F92CC
:100BB0000FB60F9211242F933F934F935F936F9330
:100BC0007F938F939F93AF93BF93EF93FF9384E9AA
:100BD00091E00E94F101FF91EF91BF91AF919F9140
:100BE0008F917F916F915F914F913F912F910F90D6
:100BF0000FBE0F901F9018951F920F920FB60F9275
:100C000011242F938F939F93EF93FF93E091A4016F
:100C1000F091A5018081E091AA01F091AB0182FDE4
:100C200012C090818091AD018F5F8F732091AE01D2
:100C3000821751F0E091AD01F0E0EC56FE4F958F38
:100C40008093AD0101C08081FF91EF919F918F91C1
:100C50002F910F900FBE0F901F901895E4E9F1E0CF
:100C60001382128288EE93E0A0E0B0E08483958343
:100C7000A683B78382E191E09183808385EC90E045
:100C80009587848784EC90E09787868780EC90E056
:100C9000918B808B81EC90E0938B828B82EC90E047
:100CA000958B848B86EC90E0978B868B118E128EC1
:100CB000138E148EE1E3F2E01382128284E291E05B
:100CC0009183808388E084838FEF858389E08683A6
:100CD00084E0878385E0808786E0818787E082875C
:100CE0001386148615861686178681E00C943003C9
:100CF000789484B5826084BD84B5816084BD85B5F7
:100D0000826085BD85B5816085BD80916E00816002
:100D100080936E00109281008091810082608093A8
:100D200081008091810081608093810080918000AA
:100D30008160809380008091B10084608093B100D5
:100D40008091B00081608093B00080917A008460CF
:100D500080937A0080917A00826080937A008091FB
:100D60007A00816080937A0080917A008068809315
:100D70007A001092C10082E00E94300360E080E0BF
:100D80000E94D10361E08BE00E94E40061E08CE00E
:100D90000E94E40062E082E00E94E4008DEE93E0B5
:100DA0009093010180930001809169008C7F8160A4
:100DB00080936900E89A88E391E00E942D0461E045
:100DC00080E00E94D10383E491E00E942D0468EE4C
:100DD00073E080E090E00E9445010E9428038CE4CB
:100DE00091E00E942D0461E080E00E94D10389E53A
:100DF00091E00E942D0468EE73E080E090E00E9494
:100E000045010E94280360E089E00E94D1038AE640
:100E100091E00E942D0460E08DE00E94D103E091FA
:100E20008801F0918901EE0FFF1FE65FFE4F808180
:100E300091810E942D0460E080E00E94D10380E750
:100E400091E00E942D0461E080E00E94D103609156
:100E500004017091050180910601909107010E94A3
:100E60002F0461E084E00E94D10386E791E00E94B4
:100E70002D0461E087E00E94D10325E236E049E4D9
:100E800050E46091040170910501809106019091F8
:100E900007010E94120B20E030E040E051E40E9484
:100EA000120B9B01AC0160E070E080E792E40E94CD
:100EB000B3090E942F0461E08BE00E94D1038AE70E
:100EC00091E00E942D04E091A401F091A50182E03F
:100ED0008083E091A001F091A1011082E091A20134
:100EE000F091A3018FEC80831092AC01E091A801F6
:100EF000F091A90186E08083E091A601F091A7011D
:100F0000808180618083E091A601F091A7018081BA
:100F100088608083E091A601F091A70180818068BC
:100F20008083E091A601F091A70180818F7D80836D
:100F300020E4322E01E010E03AE9832E39E9932EC5
:100F4000A92C3EE3B32E412C512C40E9642E40E401
:100F5000742E6AE570E080E090E00E9445013092D6
:100F60007C0080917A00806480937A0080917A007E
:100F700086FDFCCF809178002091790090E0922B43
:100F8000893E23E0920704F5823391058CF08A3F75
:100F900091058CF0823C21E0920784F08A3822E0AF
:100FA00092077CF0823593407CF4C4E0D0E00EC020
:100FB000C3E0D0E00BC0C0E0D0E008C0C1E0D0E0AA
:100FC00005C0C2E0D0E002C0C5E0D0E0D093090186
:100FD000C093080180918A01813029F0C530D10584
:100FE00009F4B7CF52C0609188018CE00E94B5002F
:100FF00025E236E049E450E4609104017091050176
:1010000080910601909107010E94120B20E030E0D0
:1010100040E051E40E94120B9B01AC0160E070E0E3
:1010200080E792E40E94B30920E030E048EC53E40A
:101030000E94120B20E030E040E450E40E94120BCA
:1010400020E030E040E752E40E94B3099B01AC018C
:1010500060E070E08AE794E40E94B3090E94250AE8
:101060006B01770FEE08FF0861E08BE00E94B5008E
:10107000C701B6010E94450160E08BE00E94B50007
:1010800080918A01813081F3A9CFC230D10561F00E
:1010900024F4219709F485C057C0C330D10561F10C
:1010A000249709F49AC050C0C0900401D090050163
:1010B000E0900601F09007012AE939E949E95EE389
:1010C000C701B6010E94AE0918168CF08092040187
:1010D00090920501A0920601B092070161E080E0C4
:1010E0000E94D1036AE979E989E99EE357C02DECB2
:1010F0003CEC4CEC5DE36CC0C0900401D090050169
:10110000E0900601F090070120E030E040E950E473
:10111000C701B6010E940D0B87FD11C0409204016A
:1011200050920501609206017092070161E080E033
:101130000E94D10360E070E080E990E42FC02DECC4
:101140003CEC4CEC5DE316C0C0900401D09005016E
:10115000E0900601F090070123E333E343E850E415
:10116000C701B6010E940D0B87FFD8CF20E030E009
:1011700040E05FE3C701B6010E9442096B017C01B8
:101180006093040170930501809306019093070119
:1011900061E080E00E94D103C701B6010E942F04E4
:1011A00043C0C0900401D0900501E0900601F0908A
:1011B000070123E333E343E35FE3C701B6010E9482
:1011C000AE0918160CF082CF20E030E040E05FE37B
:1011D000C701B6010E944109D1CF80918801909149
:1011E0008901892B29F4109389010093880104C097
:1011F000109289011092880160E08DE00E94D10375
:101200008FE791E00E942D0460E08DE00E94D10301
:10121000E0918801F0918901EE0FFF1FE65FFE4F1C
:10122000808191810E942D0461E087E00E94D103BA
:1012300025E236E049E450E4609104017091050133
:1012400080910601909107010E94120B20E030E08E
:1012500040E051E40E94120B9B01AC0160E070E0A1
:1012600080E792E40E94B3090E942F0461E08BE0C2
:101270000E94D1038AE791E00E942D040E9482021D
:1012800068CE5058BB27AA270E9459090C94D30A4C
:101290000E94C50A38F00E94CC0A20F039F49F3F22
:1012A00019F426F40C94C20A0EF4E095E7FB0C94B2
:1012B000BC0AE92F0E94E40A58F3BA1762077307C1
:1012C0008407950720F079F4A6F50C94060B0EF42C
:1012D000E0950B2EBA2FA02D0B01B90190010C0146
:1012E000CA01A0011124FF27591B99F0593F50F45E
:1012F000503E68F11A16F040A22F232F342F4427B6
:10130000585FF3CF469537952795A795F0405395AD
:10131000C9F77EF41F16BA0B620B730B840BBAF07D
:101320009150A1F0FF0FBB1F661F771F881FC2F7E8
:101330000EC0BA0F621F731F841F48F487957795FC
:101340006795B795F7959E3F08F0B0CF9395880FB6
:1013500008F09927EE0F9795879508950E94980AAF
:1013600008F481E008950E94C7090C94D30A0E94F2
:10137000CC0A58F00E94C50A40F029F45F3F29F0DA
:101380000C94BC0A51110C94070B0C94C20A0E94D5
:10139000E40A68F39923B1F3552391F3951B550B98
:1013A000BB27AA2762177307840738F09F5F5F4F38
:1013B000220F331F441FAA1FA9F335D00E2E3AF077
:1013C000E0E832D091505040E695001CCAF72BD08F
:1013D000FE2F29D0660F771F881FBB1F26173707E0
:1013E0004807AB07B0E809F0BB0B802DBF01FF2712
:1013F00093585F4F3AF09E3F510578F00C94BC0A29
:101400000C94070B5F3FE4F3983ED4F386957795F1
:101410006795B795F7959F5FC9F7880F911D9695CA
:10142000879597F90895E1E0660F771F881FBB1F26
:10143000621773078407BA0720F0621B730B840BD3
:10144000BA0BEE1F88F7E09508950E942C0A689465
:10145000B1110C94070B08950E94EC0A88F09F5775
:1014600098F0B92F9927B751B0F0E1F0660F771FC8
:10147000881F991F1AF0BA95C9F714C0B13091F0BE
:101480000E94060BB1E008950C94060B672F782F8D
:101490008827B85F39F0B93FCCF386957795679583
:1014A000B395D9F73EF490958095709561957F4FEF
:1014B0008F4F9F4F0895E89409C097FB3EF4909595
:1014C0008095709561957F4F8F4F9F4F9923A9F01D
:1014D000F92F96E9BB279395F695879577956795AC
:1014E000B795F111F8CFFAF4BB0F11F460FF1BC0F0
:1014F0006F5F7F4F8F4F9F4F16C0882311F096E983
:1015000011C0772321F09EE8872F762F05C0662330
:1015100071F096E8862F70E060E02AF09A95660FE9
:10152000771F881FDAF7880F9695879597F90895A2
:10153000990F0008550FAA0BE0E8FEEF16161706E4
:10154000E807F907C0F012161306E407F50798F04C
:10155000621B730B840B950B39F40A2661F0232B65
:10156000242B252B21F408950A2609F4A140A695E1
:101570008FEF811D811D089597F99F6780E870E0C6
:1015800060E008959FEF80EC089500240A941616F9
:10159000170618060906089500240A941216130661
:1015A000140605060895092E0394000C11F48823EF
:1015B00052F0BB0F40F4BF2B11F460FF04C06F5F0B
:1015C0007F4F8F4F9F4F089557FD9058440F551FE1
:1015D00059F05F3F71F04795880F97FB991F61F0B5
:1015E0009F3F79F087950895121613061406551F2C
:1015F000F2CF4695F1DF08C0161617061806991F98
:10160000F1CF86957105610508940895E894BB278C
:1016100066277727CB0197F908950E94980A08F466
:101620008FEF08950E94250B0C94D30A0E94C50ADF
:1016300038F00E94CC0A20F0952311F00C94BC0ADB
:101640000C94C20A11240C94070B0E94E40A70F354
:10165000959FC1F3950F50E0551F629FF001729F57
:10166000BB27F00DB11D639FAA27F00DB11DAA1F66
:10167000649F6627B00DA11D661F829F2227B00DB3
:10168000A11D621F739FB00DA11D621F839FA00D3E
:10169000611D221F749F3327A00D611D231F849F8E
:1016A000600D211D822F762F6A2F11249F575040E5
:1016B0009AF0F1F088234AF0EE0FFF1FBB1F661F60
:1016C000771F881F91505040A9F79E3F510580F029
:1016D0000C94BC0A0C94070B5F3FE4F3983ED4F3E0
:1016E000869577956795B795F795E7959F5FC1F7CD
:1016F000FE2B880F911D9695879597F908950E9466
:10170000980A880B990B0895A1E21A2EAA1BBB1BFD
:10171000FD010DC0AA1FBB1FEE1FFF1FA217B307BD
:10172000E407F50720F0A21BB30BE40BF50B661FD3
:10173000771F881F991F1A9469F760957095809597
:1017400090959B01AC01BD01CF010895EE0FFF1FE5
:101750000590F491E02D099481E090E0F8940C94C8
:06176000B10BF894FFCF6D
:101766007F017F010000C03F050083018401000066
:10177600000013028001AA016002DB01B901CD015C
:1017860000000000E3038001EA03E9036E616E00D6
:10179600696E66006F76660057656C636F6D6520CF
:1017A600746F0054494744726976650054686973DA
:1017B6002070726F6772616D00617373756D65730A
:1017C600202E313235696E2F73004449523E200077
:1017D6004449413A20002220280052504D29002039
:0817E6002020004343570000DE
:00000001FF
